:080000000C946D000C9400004B
:100008000C9400000C9400000C9400000C94000068
:100018000C9400000C9400000C9400000C94C40094
:100028000C9400000C9400000C9400000C94A500A3
:100038000C9400000C9400000C9400000C94000038
:100048000C9400000C9400000C9454010C94FA01D8
:100058000C9400000C9400000C9400000C94000018
:100068000C9400000C9400000C9400000C94000008
:100078000C940000010002008000800080008000D5
:1000880008000001020304050607090A0B0E0F10F9
:100098001116191A1B1C1D1E2C2D3D0000000000F6
:1000A8000100E3087C000100EF087E000100F00871
:1000B80080000100F10882000100F20884000100BC
:1000C800F30886000100F408880003000B00A40070
:1000D8000000F894EE27EFBBF1E0F5BFE5BFF8E1CB
:1000E800A895A4B7A77FA4BFF0936000E093600031
:1000F8008DE0A2E0BB27ED938A95E9F780E090E1D7
:10010800A0E0B1E0ED930197E9F7E8EAF0E0859126
:100118009591009761F0A591B59105901590BF0153
:10012800F00105900D920197E1F7FB01F0CFE0E0B7
:10013800EEBBEFEFEDBFE0E1EEBFC8ECD1E00C9411
:1001480035020A921A92FA926A937A938A939A9348
:10015800AA93BA93EA93FA93EFB7EA93289A5C9A28
:100168007894CBD1E991EFBFF991E991B991A9912F
:100178009991899179916991F990199009901895B7
:100188000A921A92FA926A937A938A939A93AA9302
:10019800BA93EA93FA93EFB7EA9353944098E5E059
:1001A800E51511F00C9446015524A4EEB8E0ED9144
:1001B800FD913196FE93EE93E091DD08EF5FE093B9
:1001C800DD08E091EE08EF5FE093EE08A091E60805
:1001D800B091E708129738F0A6EEB8E0ED91FD91DE
:1001E8003197FE93EE93A091E608B091E708119736
:1001F80031F4E0E0E093E608E093E708BB24E091FF
:10020800DC08A091DD080E94D9060E2EA091DC081A
:10021800E0E00E94DE06E02131F0E0E0E093DD0856
:10022800E1E0E093DE08E091EF08A091EE080E947B
:10023800D9060E2EA091EF08E0E00E94DE06E0212C
:1002480009F1E0E0E093EE08E091F008E093F508AA
:10025800E0E8E093F008E091F108E093F608E0E8C0
:10026800E093F108E091F208E093F708E0E8E09302
:10027800F208E091F308E093F808E0E8E093F30867
:100288001BD1409AE991EFBFF991E991B991A991F0
:100298009991899179916991F99019900990189596
:1002A8000A921A92FA926A937A938A939A93AA93E1
:1002B800BA93EA93FA93EFB7EA93A090C600EB2DAE
:1002C800E03039F4BA2CE0E0E093EC08E093ED0874
:1002D80079C0E13009F46DC0E038B9F4ACEEB8E0AB
:1002E800ED91FD913196FE93EE933197E85AFA4FCE
:1002F800A082A091EC08B091ED08A23CE7E0BE070F
:1003080019F4789494D3B5D302C0E63F21F4A092AF
:10031800E308BB2457C0E73FA1F4ACEEB8E0ED9189
:10032800FD913196FE93EE933197E85AFA4FA082E9
:10033800A091EC08B091ED08129711F4E1E0DE2EDF
:1003480041C0E83FA1F4ACEEB8E0ED91FD913196E3
:10035800FE93EE933197E85AFA4FA082A091EC08E9
:10036800B091ED08129711F4E1E0DE2E2BC0E93FC1
:1003780001F1EA3FF1F0EB3FE1F0EC3FD1F0ED3F66
:10038800A1F4ACEEB8E0ED91FD913196FE93EE93B9
:100398003197E85AFA4FA082A091EC08B091ED0885
:1003A800129711F4E1E0DE2E0DC0EE3F11F0EF3FA1
:1003B80049F4E091EC08F091ED08E85AFA4FA08270
:1003C800E1E0DE2EE4EFF1E0E093E608F093E708E1
:1003D800E991EFBFF991E991B991A9919991899121
:1003E80079916991F990199009901895AA93BA93FF
:1003F800EA93FA93EFB7EA93E091EA08F091EB08F1
:10040800A091E808B091E908EA17FB0731F4E091F8
:10041800C100EF7DE093C1001DC0A8EEB8E0ED91EA
:10042800FD913196FE93EE93A091E808B091E9080A
:10043800A438E3E0BE0729F4E0E0E093E808E0939D
:10044800E908E091E808F091E908EC52FE4FE081F4
:10045800E093C600E991EFBFF991E991B991A991AB
:100468001895ECD32A98EAE8EA9360D4ECE1EA9389
:100478005DD486D300E010E0ECEAEA9357D40A93FF
:1004880055D47ED3EDEAEA9351D4E02FE095EA9370
:100498004DD476D3E9E8EA9349D4E7E0EA9346D421
:1004A8002A9AE1E0ED1509F401D2A091DE08A13005
:1004B80009F476D2F6CFFFCF5D98439A5F984298B9
:1004C8005E98E091F508E2B95E9A5F9A42985E9864
:1004D800E091F608E2B95E9A5F98429A5E98E091D8
:1004E800F808E2B95E9A5F9A429A5E98E091F70836
:1004F800E2B95E9A43985D9A08952A98E0E5EA93EE
:1005080015D4E0E0E6BDE6B5E831E8F30E94B606AA
:100518009092CC018092CD010E94B6069092C801BB
:100528008092C9010E94B6069092CA018092CB01BE
:100538000E94B6069092CE018092CF010E94B60624
:100548009092D2018092D3010E94B6069092D00177
:100558008092D1012A9AE091E308E03031F5E091E8
:10056800CB01A091CA01EA0FE058E093DF08A091FF
:10057800CB01E091CA01EA1BE058E093E008E09162
:10058800C901A091C801EA0FE058E093E108E091A1
:10059800DF08E093C801E091E008E093CA01E09128
:1005A800E108E093C901E0E814C0E130A1F4E0916A
:1005B800C801E058E093C801E091CA01E058E0930F
:1005C800CA01E091C901E058E093C901E091CB016B
:1005D800E058E093CB01A091C801A13850F0A05891
:1005E800E091F4080E94D106A091F008EA0FE09388
:1005F800F008A091C801A03860F4E0E8EA1BAE2F2B
:10060800E091F4080E94D106A091F008AE1BA093D7
:10061800F008A091CA01A13850F0A058E091F40860
:100628000E94D106A091F108EA0FE093F108A09189
:10063800CA01A03860F4E0E8EA1BAE2FE091F408A4
:100648000E94D106A091F108AE1BA093F108A091D9
:10065800C901A13868F0E091C901E058AE2FE091D6
:10066800F4080E94D106A091F208EA0FE093F2087C
:10067800A091C901A03870F4A091C901E0E8EA1B73
:10068800AE2FE091F4080E94D106A091F208AE1BAB
:10069800A093F208A091CB01A13868F0E091CB01BA
:1006A800E058AE2FE091F4080E94D106A091F3081B
:1006B800EA0FE093F308A091CB01A03870F4A09161
:1006C800CB01E0E8EA1BAE2FE091F4080E94D106C6
:1006D800A091F308AE1BA093F308E091E208E03084
:1006E80019F4E1E0E093E208E091D201EF5FE093D2
:1006F800D201E091D301EF5FE093D301E091D00103
:10070800E03019F4E1E0E093D001E091D101E0306C
:1007180019F4E1E0E093D101E091CE01EF5FE093BD
:10072800CE01E091CF01EF5FE093CF01E0E0E093ED
:10073800EA08E093EB08AAEEB8E0ED91FD91319656
:10074800FE93EE933197EC52FE4FA0E0A083AAEE01
:10075800B8E0ED91FD913196FE93EE933197EC520E
:10076800FE4FDF01E091E208EF5FE093E208E1501D
:10077800EC93AAEEB8E0ED91FD913196FE93EE93DD
:100788003197EC52FE4FA091C801A083AAEEB8E0C1
:10079800ED91FD913196FE93EE933197EC52FE4F19
:1007A800A091CA01A083AAEEB8E0ED91FD9131961F
:1007B800FE93EE933197EC52FE4FA091C901A083AE
:1007C800AAEEB8E0ED91FD913196FE93EE93319744
:1007D800EC52FE4FA091CB01A083AAEEB8E0ED91B8
:1007E800FD913196FE93EE933197EC52FE4FA09116
:1007F800CE01A083AAEEB8E0ED91FD913196FE936B
:10080800EE933197EC52FE4FA091CF01A083AAEE50
:10081800B8E0ED91FD913196FE93EE933197EC524D
:10082800FE4FA091D201A083AAEEB8E0ED91FD9110
:100838003196FE93EE933197EC52FE4FA091D00182
:10084800A083AAEEB8E0ED91FD913196FE93EE9368
:100858003197EC52FE4FA091D301A083AAEEB8E0E5
:10086800ED91FD913196FE93EE933197EC52FE4F48
:10087800A091D101A083E0E0E093E808E093E908C3
:10088800EBE0F0E0E093EA08F093EB08E091E80889
:10089800F091E908EC52FE4FE081E093C600E09148
:1008A800C100E062E093C10028980895E8E0E09371
:1008B8008100E0E0E093DC08E093DE085C98EB2D33
:1008C800E73F49F4E0915905E093EF08E0915A05B4
:1008D800E093F40862C0E83F69F42A98E09159056A
:1008E800E068EA9323D24CD1E0915A05EA931ED2EC
:1008F8002A9A53C0E93F61F42A98E0915905EA938E
:1009080015D23ED10E94B6062A9A9A9248D145C07D
:10091800EA3F29F4E0E0E093DC08F7D03EC0EB3F83
:1009280021F4E2E3E093DC0838C0EC3F11F4FED098
:1009380034C0ED3F49F4E0915905E0938900E09116
:100948005A05E093880029C0EE3F99F4E0E0E0936F
:10095800DC08E8E0E0938100E091EA08F091EB0818
:10096800A091E808B091E908EA17FB07A9F744CB7A
:1009780014C0EF3F91F42A9803D1E2E9EA93D6D163
:10098800EAEAEA93D3D1FCD02A9AE0E0E093850022
:10099800E0938400EAE0E0938100BB24DD2408951D
:1009A8001A930A93289AE8E0E09381002A98EAE8E3
:1009B800EA93BCD1ECE1EA93B9D1E0E0E6BDE6B553
:1009C800E031E8F3E3E9EA93B1D1E3E8EA93AED1A1
:1009D8002A9AE0E0E093E408E093E508A091E408AF
:1009E800B091E5081397D0F32A98E0E4EA939ED1F2
:1009F800E0E0E6BDE6B5E031E8F300E010E00438F9
:100A0800E3E01E0770F40E94B6069A92C8D08A9254
:100A1800C6D0E0E0E6BDE6B5E430E8F30F5F1F4F6F
:100A2800EECF2A9AE0E0E093DE0828981FC01A93D8
:100A38000A9300E010E0023CE7E01E07B8F4189AB9
:100A4800F999FECFE7B7E0FDFDCFE12FF070E2BDE9
:100A580001BDA8E5B5E0A00FB11FEC91E0BDE4E051
:100A6800EFBBE6E0EFBB0F5F1F4FE5CF0991199190
:100A780008950E94E3062A98E4E9EA9357D1EDE144
:100A8800EA9354D12A9AE0E0E093E408E093E50879
:100A9800A091E408B091E5081597D0F32A98E4E905
:100AA800EA9344D1E8E1EA9341D12A9A69D02A9895
:100AB800E0EEEA933BD1F99B02C0189AFCCF20E004
:100AC80030E0E32FF070E2BD21BD00E010E0023C11
:100AD800E7E01E0790F45BD0F999FECFE1E0EFBBA9
:100AE8002F5F3F4FE32FF070E2BD21BD40B44A9223
:100AF8001DD14DD00F5F1F4FEACF2A9A41D040D069
:100B08003FD00E94E80624960895299A39D029985A
:100B1800E0E0E093E408E093E508A091E408B091F0
:100B2800E508A83CE0E0BE07C0F30895699789E1AD
:100B3800A0E0B0E0EAE8F0E00E94ED061A932A98F7
:100B480010E01931C8F4E12FF0E0DE011196AE0F84
:100B5800BF1FEC91EA93EAD0E0E0E6BDE6B5E031EC
:100B6800E8F30E94B6069A921AD0E0E0E6BDE6B530
:100B7800E031E8F31F5FE5CF2A9A18816A96089555
:100B88001A9310E01A3F10F41F5FFCCF06C01A93A7
:100B980010E0183210F41F5FFCCF19910895E0910E
:100BA800C100EF7DE093C100AAEEB8E0ED91FD91A0
:100BB8003196FE93EE93A091EA08B091EB08A43821
:100BC800E3E0BE0729F4E0E0E093EA08E093EB08ED
:100BD800E091EA08F091EB08EC52FE4FA881A0835F
:100BE800E091C000E072E03211F5A8EEB8E0ED91B6
:100BF800FD913196FE93EE93A091E808B091E90833
:100C0800A438E3E0BE0729F4E0E0E093E808E093C5
:100C1800E908E091E808F091E908EC52FE4FE0811C
:100C2800E093C600E091C100E062E093C100E0916A
:100C3800C100E062E093C1000C94B406E0E0E093E8
:100C48008000E8E0E0938100E0E0E0938200E09338
:100C58008500E0938400E2E0E0938900E0E7E09318
:100C68008800E2E0E0936F00E093B000E3E0E093F7
:100C7800B100E0E0E093B200EDE7E093B300E2E01A
:100C8800E0937000E0E0E4BDE0936E00E3E0E5BDD2
:100C9800E0E0E6BDE093C500E1E0E093C400E2E0F7
:100CA800E093C000E8E9E093C100E6E0E093C20009
:100CB8007894229A2A9A24982398269A2E98259AE4
:100CC8002D98219A2998209A2898549A5C98389AAD
:100CD8004098EFEFE1B9EAB9E7B95D9AE0E0E0934F
:100CE800E408E093E508E091E408F091E50830971E
:100CF800D1F3299AE0E0E093E408E093E508A091B5
:100D0800E408B091E508A83CE0E0BE07C0F32998E4
:100D1800E0E0E093E408E093E508A091E408B091EE
:100D2800E508A43BE0E0BE07C0F308954880742CB2
:100D380066272E9800000000000000000000000058
:100D480077FE2D9877FC2D9A2E9A0000000000005F
:100D5800000000000000770C6395683009F0E9CFC7
:100D6800219608959924882461E0662E6627990CB7
:100D7800880C2E980000639500000000000077247E
:100D88002E9A00000000000073B074FC962873FCD3
:100D98008628683009F0EBCF0895EE230E2EEA2F4F
:100DA80019F0EE0F0A94E9F70895EA17E1E009F05F
:100DB800EE270895EA17E1E009F4EE2708953A933B
:100DC8002A931A930A9308953B812A8119810881ED
:100DD8000895AC0FBD1F05900D928A95E1F708950F
:00000001FF
